:01002000E9F6
:05002800220D20FCC9BF
:070030001A22130D20FAC98A
:08004000F5E521A4C0C3800016
:20008000C5D52AB6280BE53A6E67E7E12318F3E804D1C1E1F041E60220FAF1D921A2C034B6
:0C00A00020022334CD80FF3E01E091C916
:20010000C35301CEED6666CC0D000B03730083000C000D0008111F8889000EDCCC6EE6DD1B
:13012000DDD999BBBB67636E0EECCCDDDC999FBBB9333E33
:060134005469746C6500C3
:20014400000000000000000001000000FAA0C0F357AF3100E02100C00EA0EF21A0C00E1811
:20016400EF7AEAA0C0CD2C08AFE042E043E041E04A3E07E04B11C4012180FF0E0AF7CD8046
:20018400FF019C00CD0F083EE4E047E0483E1BE0493EC0E040AFE00F3E01E0FFE090AF21CE
:2001A400A2C02277E026CDC10FFBCD0002760018FCFBC9F3C9F3F802AFE00F7EFBE0FFC91D
:0A01C4003EC0E0463E283D20FDC984
:0101E000C955
:010FD500C952
:2007EF0021A4C02A5F5623B2C87BB920F67AB820F2545D1B1B2A1247132A1213B0C818F50A
:20080F0021A4C02AB628032318F9783271C9F04087D0AFE0917600F091B728F9C9F040872B
:20082F00D0F044FE9230FAF044FE9138FAF040E67FE040C9C5F8042A4F46CDEF07C1C9C5E6
:0A084F00F8042A4F46CD0F08C1C976
:1C085900216408E5CD7508E802C90049276D20696E20666978656420524F4D0002
:2002000021C302E5CD7508E802CD59081E03210040CDCF081E01210040CDCF081E01212700
:2002200078CDCF081E02210040CDCF0821D502E5CD7508E8022163084E0600C521D602E5E9
:20024000CD9108E80401030079E0903E03EA00202110405E1600C5D521EC02E5CD9108E853
:200260000601010079E0903E01EA00202110405E1600C5D5210203E5CD9108E80601010064
:2002800079E0903E01EA00202137785E1600C5D5211803E5CD9108E80601020079E0903EAF
:2002A00002EA00202110405E1600C5D5212E03E5CD9108E806214403E5CD7508E802CD1DBD
:2002C0000818FB50726F6772616D2053746172742E2E2E0A000056617230203D20257520D9
:2002E000697320756E62616E6B65640056617231203D20257520696E2062616E6B202575DC
:200300000A0056617232203D20257520696E2062616E6B2025750A0056617233203D2025EC
:200320007520696E2062616E6B2025750A0056617234203D20257520696E2062616E6B208A
:1003400025750A000A54686520456E642E2E2E001D
:20C00000F0904F0600C5211140E5CD9108E804C90146756E633120696E20524F4D2062616E
:20C020006E6B2025750A00010101010101010101010101010101010101010101010101014A
:20C040000101010101010101010101010101010101010101010101010101010101010101C0
:20C060000101010101010101010101010101010101010101010101010101010101010101A0
:20C08000010101010101010101010101010101010101010101010101010101010101010180
:20C0A000010101010101010101010101010101010101010101010101010101010101010160
:07C82000010101010101010A
:20400000F0904F0600C5211140E5CD9108E804C90246756E633220696E20524F4D206261EC
:204020006E6B2025750A0001010101010101010101010101010101010101010101010101CA
:20404000010101010101010101010101010101010101010101010101010101010101010140
:20406000010101010101010101010101010101010101010101010101010101010101010120
:20408000010101010101010101010101010101010101010101010101010101010101010100
:2040A0000101010101010101010101010101010101010101010101010101010101010101E0
:2078200001010101010101F0904F0600C5213878E5CD9108E804C90346756E633320696E1D
:2078400020524F4D2062616E6B2025750A0001010101010101010101010101010101010188
:207860000101010101010101010101010101010101010101010101010101010101010101E8
:207880000101010101010101010101010101010101010101010101010101010101010101C8
:2078A0000101010101010101010101010101010101010101010101010101010101010101A8
:2078C000010101010101010101010101010101010101010101010101010101010101010188
:2078E000010101010101010101010101010101010101010101010101010101010101010168
:20790000010101010101010101010101010101010101010101010101010101010101010147
:20792000010101010101010101010101010101010101010101010101010101010101010127
:0E79400001010101010101010101010101012B
:20800000F0904F0600C5211140E5CD9108E804C90446756E6334206E6F74206175746F62E4
:20802000616E6B656420697320696E20524F4D2062616E6B2025750A0001010101010101B5
:20804000010101010101010101010101010101010101010101010101010101010101010100
:208060000101010101010101010101010101010101010101010101010101010101010101E0
:208080000101010101010101010101010101010101010101010101010101010101010101C0
:2080A0000101010101010101010101010101010101010101010101010101010101010101A0
:1C087500C1D1D5C51AB7280B13D5F533CD500333D118F13E0AF533CD500333C96E
:1108CF00F090F57BE090EA0020E7F1E090EA0020C993
:1B089100F80223235D54015003D5210000E5C5F8082A666FE5CD3904E808C9C0
:0301E800C35D0BE9
:0D0FC100AFEACEC0EACFC021B8C00E16EFD7
:2008E000210E0CCD6C09C97AB3C87CFE983803D61067AFBB200115F041E60220FA0A220321
:20090000F041E60220FA0A77032C2008247CFE98200226881D20E015CB7A28DBC97AB3C88E
:200920007CFE983803D61067D50A5F03C5010000FAD1C0CB47280206FFCB4F28020EFF57A2
:20094000FAD0C0AA57CB4228037BA847CB4A28037BA94FF041E60220FA702C71237CFE9842
:2009600020022688C1D11B7AB320BDC9CD2C08E521BDC006067E23B6FE00280B23230520A4
:20098000F4E12100001824D1722B73FABBC02B77E5CDFC09FAA1C0E602C4B40921B9C02AEE
:2009A000666F23FABBC086EABBC0E1F040F681E6E7E040C921B9C02A666F233A160017CBB3
:2009C0001217CB1217CB125F7EF5E603018000FE01280A010000FE02280301000123230933
:2009E0004D44FAB8C0CB376FE60F677DE6F06F3E908467F1CB57CAE708C31D092AEAB8C06B
:200A00002AEAB9C02AEABAC0C9FE0A200EF5FAA1C0E6082005CDEC0AF1C9F1CD2F0AC30121
:200A20000BCD2F0AC3010BCDD50A3E00C32F0AF5FABAC0B7200ACD9A0AAFEABBC0CDE0086C
:200A4000F1C5D5E55F21B9C02A666F2AE603FE022805231600195EFAB8C0835FFACFC06FF2
:1D0A600026002929292929FACEC04F06000901009809F041E60220FA73E1D1C1C91C
:12035000C5F8047ECD090AC1C9C5F8047ECD2F0AC1C923
:200A7D00C5F8047E23666FCD6C09E5D1C1C9C5F8047E23666FCDFC09C1110000C9C5CD5D0D
:200A9D000BAFEABBC021BCC00612220520FC3E03EAD0C03E00EAD1C0CDBA0AC1C9D5E521B8
:180ABD0000981E201620F041E60220FA3600231520F41D20EFE1D1C9B9
:20036200F8022AEACEC07EEACFC0C9FAA1C0E6022005C5CD5D0BC1FACEC05FC9FAA1C0E60B
:0D038200022005C5CD5D0BC1FACFC05FC9DB
:200AD500E521CEC0AFBE280335180A361321CFC0AFBE280135E1C9E5AFEACEC021CFC03E16
:200AF50011BE2803341803CD2F0BE1C9E521CEC03E13BE2803341820360021CFC03E11BEBA
:200B15002803341813FAA1C0E6042809AFEACFC0EACEC01803CD2F0BE1C9C5D5E52100981C
:200B35000120981E1F1620F041E60220FA0A22031520F41D20EF1620F041E60220FA3E0016
:080B5500221520F4E1D1C1C911
:200B5D00F3F040CB7F2815CD2C0801A50B21A4C0CDF20701B00B21D3C0CDF207CD860BF04D
:190B7D0040F681E6E7E040FBC9AFEACEC0EACFC0CDBA0A3E02EAA1C0C972
:200B9600F8022AEAD0C02AEAD1C07EEAD2C0C9F040F610E0403E48E045C9F041E60220FA3C
:070BB600F040E6EFE040C94A
:03004800C3BD0B2A
:070FCE00AF21D3C00E08EFB4
:200BBD00F5E5C5D521D3C0E52A666FB42815E721D5C02A666FB4280BE721D7C02A666FB446
:200BDD00C42000E1D1C1E1F041E60220FAF1D9C5F8044E2346CDF70BC1C921D3C0C3120861
:110BFD00C5F8044E2346CD080CC1C921D3C0C3F20794
:200C0E000566000000000000000000000000000060610000000000000000000000006263D5
:200C2E006465000102030405060708090A0B0C0D0E0F101112131415161718191A1B1C1D2A
:200C4E001E1F202122232425262728292A2B2C2D2E2F303132333435363738393A3B3C3DD6
:200C6E003E3F404142434445464748494A4B4C4D4E4F505152535455565758595A5B5C5DB6
:200C8E005E5F00000000000000001818181818001800666644000000000000247E24247E81
:200CAE002400143E553C1E553E1462660C183066460078CC61CECCCC7800181810000000CF
:200CCE00000004081818181808042010181818181020005438FE385400000018187E1818DA
:200CEE00000000000000003030200000003C00000000000000000018180003060C1830603D
:200D0E00C0003C666E7666663C0018381818181818003C660E1C38707E007E0C183C064693
:200D2E003C000C1C2C4C7E0C0C007E607C0606463C001C20607C66663C007E060E1C18184D
:200D4E0018003C66663C66663C003C66663E060C38000018180000181800001818001818D1
:200D6E001000060C1830180C060000003C00003C00006030180C183060003C46060C181839
:200D8E0000183C666E6A6E603C003C66667E666666007C66667C66667C003C6260606062C5
:200DAE003C007C66666666667C007E60607C60607E007E60607C606060003C62606E6666E9
:200DCE003E006666667E6666660018181818181818000606060606463C00666C7870786CFF
:200DEE0066006060606060607C00FCD6D6D6D6C6C60062727A5E4E4642003C666666666627
:200E0E003C007C66667C606060003C66666666663C067C66667C666666003C62703C0E4694
:200E2E003C007E181818181818006666666666663C006666666666647800C6C6C6D6D6D60C
:200E4E00FC006666663C666666006666663C181818007E0E1C3870607E001E18181818186E
:200E6E001E00406030180C060200781818181818780010386C00000000000000000000002E
:200E8E007E0000C0C06000000000003C463E66663E00607C666666667C00003C626060626C
:200EAE003C00063E666666663E00003C667E60623C001E307C3030303000003E6666663E78
:200ECE00463C607C6666666666001800181818181800000818181818583060646870786CA8
:200EEE0066001818181818180C0000FCD6D6D6D6C600007C666666666600003C666666667A
:200F0E003C00007C6666667C6060003E666666663E06006C706060606000003C72381C4ED7
:200F2E003C00183C181818180C000066666666663E00006666666664780000C6C6D6D6D6E9
:200F4E00FC000066663C6666660000666666261E463C007E0E1C38707E000E1818301818E9
:200F6E000E0018181818181818187018180C181870000060F29E0C00000010102828444455
:200F8E0082FE000000FFFFFF00001C1C1C1C1C1C1C1C0000001F1F1F1C1C000000FCFCFC5D
:120FAE001C1C1C1C1C1F1F1F00001C1C1CFCFCFC000000
:2008AC00F80423235D54F802E5D5E5212407E5F80C2A666FE5CD3904E808AFF533CD2407BE
:0308CC00E803C975
:20038F000E0079D604D0F8037ECB37E60F5F160021C7031946C5F8082A666FE5C533F8094C
:2003AF002A666FCDC00FE803C13E04F802CB2623CB163D20F60C18CA3031323334353637D9
:2003CF0038394142434445460001C703F8027ECB37E60F6F26000956C5F8072A666FE5D55D
:2003EF0033F8082A666FCDC00FE803C1F8027EE60F26006F0946F8052A666FE5C533F8064C
:20040F002A666FCDC00FE803C9F8022A4F460AB7C8C5F808F52A666FF1E5F533F8092A66F4
:20042F006FCDC00FE803C10318E4E8CDF8392A5EF8102273F8372A5EF8122273F8102A5E06
:20044F00F8142273F8122A5EF8162273F8007D54F818227A322A5E232273F8182A5EF81C24
:20046F002273F8182A5EF81E2273F8182A5EF8202273F8182A5EF8222273F8182A5EF82455
:20048F002273F8182A5EF8262273F8122A5EF8282273F8352A4F460A57B7CA2107D625C273
:2004AF000407032B792278322A5EF82A227B322A5F561A2377F83B2A5F566B6223E57DF847
:2004CF002F77E17CF82E322A5F562101007B955F7A9CF8303273F82C7ED663CA0A06F83B77
:2004EF002A5F5613134B420B0BF831792270F82C7ED664CA6306F82C7ED668281BF82C7E3D
:20050F00D673CAE606F82C7ED675CA2E06F82C7ED678CA9806C31607F82A2A5F566B6223B9
:20052F00E57DF83777E17CF836322A5F561AFE64CAD205FE752855D678C21607F82D2A5E21
:20054F00F83B2273F82F2A5F561A4FCB37E60FC6C76F3E00CE036746C5F8122A666FE5C52E
:20056F0033F82D2A666FCDC00FE803C179E60F4F060021C7030946F8102A666FE5C533F8F4
:20058F002B2A666FCDC00FE803C31607F8242A4F46F82D2A5EF83B2273F82F2A5F561A5FEC
:2005AF001600C5D5CD4907E804F8262A4F46F8102A666FE5F8142A666FE5C5CD1804E8061E
:2005CF00C31607F8202A4F46F82D2A5EF83B2273F82F2A5F561A5F179F57C5D5CD5807E8A6
:2005EF0004F8222A4F46F8102A666FE5F8142A666FE5C5CD1804E806C31607F82D2A5EF812
:20060F003B2273F82F2A5F561A47F8102A666FE5C533F8152A666FCDC00FE803C31607F845
:20062F001C2A4F46F83B7B2272F8312A5F561A6F131A67C5E5CD4907E804F81E2A4F46F8E9
:20064F00102A666FE5F8142A666FE5C5CD1804E806C31607F8182A4F46F83B7B2272F831F1
:20066F002A5F561A6F131A67C5E5CD5807E804F81A2A4F46F8102A666FE5F8142A666FE500
:20068F00C5CD1804E806C31607F83B7B2272F8312A5F561A4F131A47AF77F8327ED60430D0
:2006AF006678CB37E60F5F160021C7031956C5F8162A666FE5D533F81B2A666FCDC00FE832
:2006CF0003C1CB21CB10CB21CB10CB21CB10CB21CB10F8323418C3F83B7B227269602A4F6E
:2006EF0046F8102A666FE5F8142A666FE5C5CD1804E8061812F8102A666FE5D533F8152AD8
:20070F00666FCDC00FE803F83534C2A1042334C3A104E833C9E8FEF8052A4F4659501AF8A6
:20072F000022131A77D1D5F8047E126960233A5E57137B02037A02E802C9C5F8042A5F2AA1
:20074F00572A4F46CD7B07C1C9C5F8042A5F2A572A4F46CD6707C1C97A8730101F2F577BEB
:20076F002F5F133E2D0203CD7B071BC9E8FDF802AF323277C50608CB23CB127E8F27227E4B
:20078F008F27227E8F27322BCB23CB127E8F27227E8F27227E8F27322B0520DBC1C5113012
:2007AF0000F8043AE60FB7280583160102037ECB37E60F8228069283160102033AE60F8275
:2007CF0028069283160102037ECB37E60F822804928302037EE60F830203AF02D1E803C93D
:010FC000E947
:00000001FF
